:03000300020FF8F1
:030FF800D20A32E8
:03001300020FFBDE
:030FFB00D20932E6
:0E0FCF00759850438920758DFDD28ED29922DF
:100FBE005389F0438901C28CE4F58A758CDCD28C9E
:010FCE002200
:03000B00020F7D64
:040F7D00C0E0C0D040
:100F8100C28C858A8AE58C24DCF58CD28C050EE531
:090F91000EB40A05750E00D20B26
:050F9A00D0D0D0E032D0
:060FF200006E0078007D96
:060DBE008B2C8A2D892E0A
:100DC400E50A249B603B147003020EB824026003FE
:100DD400020EDD200903020EDDC209C290120F9F2C
:100DE400AB2CAA2DA92E900002EE8FF0120BF790D7
:100DF4000002120BA0F52F750A65E4F530F5318079
:100E0400180533E53370020532B47012E532B417B5
:100E14000DE4F530F531750A66F532F53322200A12
:100E240003020EDDC20A120F21EF2531F531EE3532
:100E340030F530AF2FEF3395E0FEEF25E0FFEE33D2
:100E4400FE74F22FF582740F3EF583D374019395EB
:100E540031E49395304003020EDD0509E509700283
:100E64000508D290750A64AB2CAA2DA92EE475F05E
:100E740001120BD8AB2CAA2DA92E900004E50885ED
:100E840009F0120BF7AF2FEF3395E0FEEF25E0FFEB
:100E9400EE33FE74F22FF582740F3EF583E493FE75
:100EA400740193FFC3E5319FFFE5309E9000068FE8
:100EB400F0020BF70533E533700205322091067515
:100EC4000A64D29022E53364644532700CF532F53D
:090ED40033309003C29022D29049
:010EDD0022F2
:090FE900750A64E4F508F509221B
:100F9F00E58054E024A0600D24C0600424E0800AA2
:0F0FAF007E007F02227E007F03227E007F0122D0
:100F2100E580541F24FE601524FE601624FC601722
:100F310024F86018240F70197E007F05227E007F3F
:100F41000A227E007F19227E007F32227E007F648A
:050F510022E4FEFF2276
:100EDE00312E313000312E323000312E323500734A
:100EEE0065633A2562752020242530336275006EC5
:100EFE00756D3A2530336275007675656C746F3A90
:100F0E002024302C253032627500FF0EDEFF0EE3FA
:030F1E00FF0EE8DB
:100C9900120FCF120FBE120FE9D288D28AD2A9D26F
:100CA900A8D2AAD2AF300BFDC20BAB0BAA0CA90D6F
:100CB900120DBEAB0BAA0CA90D120B75640145F000
:100CC90070E3900002120BA0FFAEF08E24F5259080
:100CD9000004120BA0F52785F026900006120BA040
:100CE900F52985F028E525640145247018900F1829
:100CF90093FB740193FA740293F9120B5CFD33951B
:100D0900E0F5228D23E525640245247018900F1B18
:100D190093FB740193FA740293F9120B5CFD3395FA
:100D2900E0F5228D23E525640345247018900F1EF4
:100D390093FB740193FA740293F9120B5CFD3395DA
:100D4900E0F5228D23AB0BAA0CA90D120B7525E03A
:100D59002422F8E6F52F08E6F530EF25E02422F8FD
:100D6900E6F53108E6F5327BFF7A0E79ED12086275
:100D7900AB0BAA0CA90D900004120BA025E02422AC
:100D8900F8E6F52F08E6F5307BFF7A0E79FD1208B3
:100D990062AB0BAA0CA90D900006120BA025E0244A
:100DA90022F8E6F52F08E6F5307BFF7A0F7907126E
:050DB9000862020CAE0F
:03000000020FDD0F
:0C0FDD00787FE4F6D8FD75813F020C9986
:100B5C00BB010689828A83E0225002E722BBFE0297
:090B6C00E32289828A83E49322CA
:100B7500BB010A89828A83E0F5F0A3E0225006874B
:100B8500F009E71922BBFE07E3F5F009E31922890D
:0B0B9500828A83E493F5F07401932240
:100BA000BB0110E58229F582E5833AF583E0F5F093
:100BB000A3E0225009E92582F886F008E622BBFE70
:100BC0000AE92582F8E2F5F008E222E5832AF583B6
:080BD000E993F5F0A3E993227B
:100BD800BB010A89828A83F0E5F0A3F0225006F768
:0F0BE80009A7F01922BBFE06F3E5F009F3192265
:100BF700F8BB0111E58229F582E5833AF583E8F030
:100C0700E5F0A3F0225009E92582C8F608A6F022EC
:0D0C1700BBFE09E92582C8F2E5F008F222D3
:10080000E53B242FF8E6053B22782C300702782FB1
:10081000E475F001120C63020B5C2000EB7F2ED21A
:10082000008018EF540F2490D43440D4FF30040BD0
:10083000EF24BFB41A0050032461FFE53C600215A9
:100840003C053FE53F7002053E30070D782CE4750E
:10085000F001120C63EF020C51020F567403D20721
:100860008003E4C207F53B8B2C8A2D892EE4F53CEE
:10087000F53EF53FE53C60077F2012083B80F575AB
:100880003DFFC201C200C202C203C205C206C208C5
:10089000120809FF700D3007057F0012084CAF3FAA
:1008A000AE3E22B4255FC2D5C204120809FF24D08F
:1008B000B40A00501A75F00A783C30D50508B6FF26
:1008C0000106C6A426F620D5047002D20380D924DE
:1008D000CFB41A00EF5004C2E5D204020A4CD20190
:1008E00080C6D20080C0D20280BCD2D580BAD205E8
:1008F00080B47F2012083B2002077401B53C004001
:10090000F1120800FF12083B020874D208D20680D8
:1009100095120800FB120800FA120800F94A4B7001
:1009200006791D7A0B7BFF20022EE53C602A7E00B3
:100930008E82758300120C2460060EEE653D70F009
:10094000C2D5EBC0E0EAC0E0E9C0E0EE120A93D005
:10095000E0F9D0E0FAD0E0FB120B5CFF60AAEBC03C
:10096000E0EAC0E0E9C0E012083BD0E02401F9D0A1
:10097000E03400FAD0E0FBE53D0460DCD53DD980F1
:10098000877BFF7A0A798FD202809C791080027966
:1009900008C206C2088008D2D5790A8004790AC242
:1009A000D5E53D047002F53DE4FAFDFEFF120800B6
:1009B000FC7B08200113120800FD7B1030000A1296
:1009C0000800FE120800FF7B20EC3382D592D55040
:1009D00013C3E43000069FFFE49EFEE42001039D64
:1009E000FDE49CFCE4CBF8C201EC700CCFCECDCC86
:1009F000E824F8F870F38017C3EF33FFEE33FEED11
:100A000033FDEC33FCEB33FB994002FB0FD8E9EBF1
:100A1000300105F8D0E0C448B201C0E00AEC4D4E08
:100A20004F78207B0070C2EAB53D0040BCC0E012A8
:100A30000A95D0F0D0E0200104C4C0E0C4B201C0E7
:100A4000F0120824D0F0D5F0EB020874120C7309F0
:100A50001153098B5808E24C08DE42098F4F099761
:0F0A60004409974908F743099D550981460981C3
:100A6F00450981470B3D5008E62D08EA2E090D2B4D
:100A7F0008EE23090B200B262A08A64800000905BB
:100A8F003F3F3F00790AA2D5200314300509B91062
:100A9F00020404B9080104A2D52006025001042063
:100AAF0002689202B53C005034C0E07F2030031939
:100ABF007F30A20272067205500F120AECC202C2F8
:100ACF0006C205C2087F30800F300503E9C0E0126F
:100ADF00083B300503D0E0F9D0E0B53CCC3005172A
:100AEF007F30B9100C12083B7F583004077F788095
:100AFF0003B9080312083B3002057F2D02083B7F24
:100B0F00202008F87F2B2006F322920280CF286E38
:100B1F00756C6C2900D2011208003001F8C20178FF
:100B2F003C30D50108F60208A62D5043495812084B
:100B3F00002403B405004001E4900B389312082CF5
:0D0B4F00743A12082CD203753C0402098B85
:100C2400BB010CE58229F582E5833AF583E0225085
:100C340006E92582F8E622BBFE06E92582F8E222CF
:0D0C4400E58229F582E5833AF583E49322E9
:100C5100BB010689828A83F0225002F722BBFE0182
:020C6100F3227C
:100C6300FAE6FB0808E6F925F0F618E6CA3AF62292
:100C7300D083D082F8E4937012740193700DA3A310
:100C830093F8740193F5828883E473740293686024
:060C9300EFA3A3A380DF24
:100F5600EFB40A07740D120F61740A309811A8993C
:100F6600B8130CC2983098FDA899C298B811F630FB
:070F760099FDC299F59922D3
:00000001FF
